{
  "_format": "hh-sol-artifact-1",
  "contractName": "EtherFlow",
  "sourceName": "contracts/EtherFlow.sol",
  "abi": [
    {
      "inputs": [],
      "stateMutability": "nonpayable",
      "type": "constructor"
    },
    {
      "anonymous": false,
      "inputs": [
        {
          "indexed": true,
          "internalType": "address",
          "name": "owner",
          "type": "address"
        },
        {
          "indexed": true,
          "internalType": "address",
          "name": "spender",
          "type": "address"
        },
        {
          "indexed": false,
          "internalType": "uint256",
          "name": "value",
          "type": "uint256"
        }
      ],
      "name": "Approval",
      "type": "event"
    },
    {
      "anonymous": false,
      "inputs": [
        {
          "indexed": true,
          "internalType": "address",
          "name": "previousOwner",
          "type": "address"
        },
        {
          "indexed": true,
          "internalType": "address",
          "name": "newOwner",
          "type": "address"
        }
      ],
      "name": "OwnershipTransferred",
      "type": "event"
    },
    {
      "anonymous": false,
      "inputs": [
        {
          "indexed": false,
          "internalType": "uint256",
          "name": "id",
          "type": "uint256"
        }
      ],
      "name": "Snapshot",
      "type": "event"
    },
    {
      "anonymous": false,
      "inputs": [
        {
          "indexed": true,
          "internalType": "address",
          "name": "from",
          "type": "address"
        },
        {
          "indexed": true,
          "internalType": "address",
          "name": "to",
          "type": "address"
        },
        {
          "indexed": false,
          "internalType": "uint256",
          "name": "value",
          "type": "uint256"
        }
      ],
      "name": "Transfer",
      "type": "event"
    },
    {
      "inputs": [],
      "name": "DOMAIN_SEPARATOR",
      "outputs": [
        {
          "internalType": "bytes32",
          "name": "",
          "type": "bytes32"
        }
      ],
      "stateMutability": "view",
      "type": "function"
    },
    {
      "inputs": [
        {
          "internalType": "address",
          "name": "owner",
          "type": "address"
        },
        {
          "internalType": "address",
          "name": "spender",
          "type": "address"
        }
      ],
      "name": "allowance",
      "outputs": [
        {
          "internalType": "uint256",
          "name": "",
          "type": "uint256"
        }
      ],
      "stateMutability": "view",
      "type": "function"
    },
    {
      "inputs": [
        {
          "internalType": "address",
          "name": "spender",
          "type": "address"
        },
        {
          "internalType": "uint256",
          "name": "amount",
          "type": "uint256"
        }
      ],
      "name": "approve",
      "outputs": [
        {
          "internalType": "bool",
          "name": "",
          "type": "bool"
        }
      ],
      "stateMutability": "nonpayable",
      "type": "function"
    },
    {
      "inputs": [
        {
          "internalType": "address",
          "name": "account",
          "type": "address"
        }
      ],
      "name": "balanceOf",
      "outputs": [
        {
          "internalType": "uint256",
          "name": "",
          "type": "uint256"
        }
      ],
      "stateMutability": "view",
      "type": "function"
    },
    {
      "inputs": [
        {
          "internalType": "address",
          "name": "account",
          "type": "address"
        },
        {
          "internalType": "uint256",
          "name": "snapshotId",
          "type": "uint256"
        }
      ],
      "name": "balanceOfAt",
      "outputs": [
        {
          "internalType": "uint256",
          "name": "",
          "type": "uint256"
        }
      ],
      "stateMutability": "view",
      "type": "function"
    },
    {
      "inputs": [
        {
          "internalType": "uint256",
          "name": "amount",
          "type": "uint256"
        }
      ],
      "name": "burn",
      "outputs": [],
      "stateMutability": "nonpayable",
      "type": "function"
    },
    {
      "inputs": [
        {
          "internalType": "address",
          "name": "account",
          "type": "address"
        },
        {
          "internalType": "uint256",
          "name": "amount",
          "type": "uint256"
        }
      ],
      "name": "burnFrom",
      "outputs": [],
      "stateMutability": "nonpayable",
      "type": "function"
    },
    {
      "inputs": [],
      "name": "decimals",
      "outputs": [
        {
          "internalType": "uint8",
          "name": "",
          "type": "uint8"
        }
      ],
      "stateMutability": "view",
      "type": "function"
    },
    {
      "inputs": [
        {
          "internalType": "address",
          "name": "spender",
          "type": "address"
        },
        {
          "internalType": "uint256",
          "name": "subtractedValue",
          "type": "uint256"
        }
      ],
      "name": "decreaseAllowance",
      "outputs": [
        {
          "internalType": "bool",
          "name": "",
          "type": "bool"
        }
      ],
      "stateMutability": "nonpayable",
      "type": "function"
    },
    {
      "inputs": [
        {
          "internalType": "address",
          "name": "spender",
          "type": "address"
        },
        {
          "internalType": "uint256",
          "name": "addedValue",
          "type": "uint256"
        }
      ],
      "name": "increaseAllowance",
      "outputs": [
        {
          "internalType": "bool",
          "name": "",
          "type": "bool"
        }
      ],
      "stateMutability": "nonpayable",
      "type": "function"
    },
    {
      "inputs": [],
      "name": "name",
      "outputs": [
        {
          "internalType": "string",
          "name": "",
          "type": "string"
        }
      ],
      "stateMutability": "view",
      "type": "function"
    },
    {
      "inputs": [
        {
          "internalType": "address",
          "name": "owner",
          "type": "address"
        }
      ],
      "name": "nonces",
      "outputs": [
        {
          "internalType": "uint256",
          "name": "",
          "type": "uint256"
        }
      ],
      "stateMutability": "view",
      "type": "function"
    },
    {
      "inputs": [],
      "name": "owner",
      "outputs": [
        {
          "internalType": "address",
          "name": "",
          "type": "address"
        }
      ],
      "stateMutability": "view",
      "type": "function"
    },
    {
      "inputs": [
        {
          "internalType": "address",
          "name": "owner",
          "type": "address"
        },
        {
          "internalType": "address",
          "name": "spender",
          "type": "address"
        },
        {
          "internalType": "uint256",
          "name": "value",
          "type": "uint256"
        },
        {
          "internalType": "uint256",
          "name": "deadline",
          "type": "uint256"
        },
        {
          "internalType": "uint8",
          "name": "v",
          "type": "uint8"
        },
        {
          "internalType": "bytes32",
          "name": "r",
          "type": "bytes32"
        },
        {
          "internalType": "bytes32",
          "name": "s",
          "type": "bytes32"
        }
      ],
      "name": "permit",
      "outputs": [],
      "stateMutability": "nonpayable",
      "type": "function"
    },
    {
      "inputs": [],
      "name": "renounceOwnership",
      "outputs": [],
      "stateMutability": "nonpayable",
      "type": "function"
    },
    {
      "inputs": [],
      "name": "snapshot",
      "outputs": [],
      "stateMutability": "nonpayable",
      "type": "function"
    },
    {
      "inputs": [],
      "name": "symbol",
      "outputs": [
        {
          "internalType": "string",
          "name": "",
          "type": "string"
        }
      ],
      "stateMutability": "view",
      "type": "function"
    },
    {
      "inputs": [],
      "name": "totalSupply",
      "outputs": [
        {
          "internalType": "uint256",
          "name": "",
          "type": "uint256"
        }
      ],
      "stateMutability": "view",
      "type": "function"
    },
    {
      "inputs": [
        {
          "internalType": "uint256",
          "name": "snapshotId",
          "type": "uint256"
        }
      ],
      "name": "totalSupplyAt",
      "outputs": [
        {
          "internalType": "uint256",
          "name": "",
          "type": "uint256"
        }
      ],
      "stateMutability": "view",
      "type": "function"
    },
    {
      "inputs": [
        {
          "internalType": "address",
          "name": "to",
          "type": "address"
        },
        {
          "internalType": "uint256",
          "name": "amount",
          "type": "uint256"
        }
      ],
      "name": "transfer",
      "outputs": [
        {
          "internalType": "bool",
          "name": "",
          "type": "bool"
        }
      ],
      "stateMutability": "nonpayable",
      "type": "function"
    },
    {
      "inputs": [
        {
          "internalType": "address",
          "name": "from",
          "type": "address"
        },
        {
          "internalType": "address",
          "name": "to",
          "type": "address"
        },
        {
          "internalType": "uint256",
          "name": "amount",
          "type": "uint256"
        }
      ],
      "name": "transferFrom",
      "outputs": [
        {
          "internalType": "bool",
          "name": "",
          "type": "bool"
        }
      ],
      "stateMutability": "nonpayable",
      "type": "function"
    },
    {
      "inputs": [
        {
          "internalType": "address",
          "name": "newOwner",
          "type": "address"
        }
      ],
      "name": "transferOwnership",
      "outputs": [],
      "stateMutability": "nonpayable",
      "type": "function"
    }
  ],
  "bytecode": "0x6101406040523480156200001257600080fd5b506040518060400160405280600981526020017f4574686572466c6f770000000000000000000000000000000000000000000000815250806040518060400160405280600181526020017f31000000000000000000000000000000000000000000000000000000000000008152506040518060400160405280600981526020017f4574686572466c6f7700000000000000000000000000000000000000000000008152506040518060400160405280600381526020017f4554460000000000000000000000000000000000000000000000000000000000815250816003908051906020019062000104929190620007f3565b5080600490805190602001906200011d929190620007f3565b50505062000140620001346200023c60201b60201c565b6200024460201b60201c565b60008280519060200120905060008280519060200120905060007f8b73c3c69bb8fe3d512ecc4cf759cc79239f7b179b0ffacaa9a75d522b39400f90508260e081815250508161010081815250504660a08181525050620001a98184846200030a60201b60201c565b608081815250503073ffffffffffffffffffffffffffffffffffffffff1660c08173ffffffffffffffffffffffffffffffffffffffff1660601b8152505080610120818152505050505050505062000236336200020b6200034660201b60201c565b600a62000219919062000a62565b6301406f406200022a919062000b9f565b6200034f60201b60201c565b62000d5a565b600033905090565b6000600960009054906101000a900473ffffffffffffffffffffffffffffffffffffffff16905081600960006101000a81548173ffffffffffffffffffffffffffffffffffffffff021916908373ffffffffffffffffffffffffffffffffffffffff1602179055508173ffffffffffffffffffffffffffffffffffffffff168173ffffffffffffffffffffffffffffffffffffffff167f8be0079c531659141344cd1fd0a4f28419497f9722a3daafe3b4186f6b6457e060405160405180910390a35050565b6000838383463060405160200162000327959493929190620008fd565b6040516020818303038152906040528051906020012090509392505050565b60006012905090565b600073ffffffffffffffffffffffffffffffffffffffff168273ffffffffffffffffffffffffffffffffffffffff161415620003c2576040517f08c379a0000000000000000000000000000000000000000000000000000000008152600401620003b9906200095a565b60405180910390fd5b620003d660008383620004c860201b60201c565b8060026000828254620003ea9190620009aa565b92505081905550806000808473ffffffffffffffffffffffffffffffffffffffff1673ffffffffffffffffffffffffffffffffffffffff1681526020019081526020016000206000828254620004419190620009aa565b925050819055508173ffffffffffffffffffffffffffffffffffffffff16600073ffffffffffffffffffffffffffffffffffffffff167fddf252ad1be2c89b69c2b068fc378daa952ba7f163c4a11628f55a4df523b3ef83604051620004a891906200097c565b60405180910390a3620004c460008383620004e560201b60201c565b5050565b620004e0838383620004ea60201b62000c2f1760201c565b505050565b505050565b62000502838383620005e560201b62000ce91760201c565b600073ffffffffffffffffffffffffffffffffffffffff168373ffffffffffffffffffffffffffffffffffffffff1614156200055f576200054982620005ea60201b60201c565b620005596200064d60201b60201c565b620005e0565b600073ffffffffffffffffffffffffffffffffffffffff168273ffffffffffffffffffffffffffffffffffffffff161415620005bc57620005a683620005ea60201b60201c565b620005b66200064d60201b60201c565b620005df565b620005cd83620005ea60201b60201c565b620005de82620005ea60201b60201c565b5b5b505050565b505050565b6200064a600560008373ffffffffffffffffffffffffffffffffffffffff1673ffffffffffffffffffffffffffffffffffffffff1681526020019081526020016000206200063e836200067160201b60201c565b620006b960201b60201c565b50565b6200066f6006620006636200074560201b60201c565b620006b960201b60201c565b565b60008060008373ffffffffffffffffffffffffffffffffffffffff1673ffffffffffffffffffffffffffffffffffffffff168152602001908152602001600020549050919050565b6000620006cb6200074f60201b60201c565b905080620006e2846000016200076d60201b60201c565b1015620007405782600001819080600181540180825580915050600190039060005260206000200160009091909190915055826001018290806001815401808255809150506001900390600052602060002001600090919091909150555b505050565b6000600254905090565b6000620007686008620007e560201b62000cee1760201c565b905090565b60008082805490501415620007865760009050620007e0565b81600183805490506200079a919062000c00565b81548110620007d2577f4e487b7100000000000000000000000000000000000000000000000000000000600052603260045260246000fd5b906000526020600020015490505b919050565b600081600001549050919050565b828054620008019062000c90565b90600052602060002090601f01602090048101928262000825576000855562000871565b82601f106200084057805160ff191683800117855562000871565b8280016001018555821562000871579182015b828111156200087057825182559160200191906001019062000853565b5b50905062000880919062000884565b5090565b5b808211156200089f57600081600090555060010162000885565b5090565b620008ae8162000c3b565b82525050565b620008bf8162000c4f565b82525050565b6000620008d4601f8362000999565b9150620008e18262000d31565b602082019050919050565b620008f78162000c79565b82525050565b600060a082019050620009146000830188620008b4565b620009236020830187620008b4565b620009326040830186620008b4565b620009416060830185620008ec565b620009506080830184620008a3565b9695505050505050565b600060208201905081810360008301526200097581620008c5565b9050919050565b6000602082019050620009936000830184620008ec565b92915050565b600082825260208201905092915050565b6000620009b78262000c79565b9150620009c48362000c79565b9250827fffffffffffffffffffffffffffffffffffffffffffffffffffffffffffffffff03821115620009fc57620009fb62000cc6565b5b828201905092915050565b6000808291508390505b600185111562000a595780860481111562000a315762000a3062000cc6565b5b600185161562000a415780820291505b808102905062000a518562000d24565b945062000a11565b94509492505050565b600062000a6f8262000c79565b915062000a7c8362000c83565b925062000aab7fffffffffffffffffffffffffffffffffffffffffffffffffffffffffffffffff848462000ab3565b905092915050565b60008262000ac5576001905062000b98565b8162000ad5576000905062000b98565b816001811462000aee576002811462000af95762000b2f565b600191505062000b98565b60ff84111562000b0e5762000b0d62000cc6565b5b8360020a91508482111562000b285762000b2762000cc6565b5b5062000b98565b5060208310610133831016604e8410600b841016171562000b695782820a90508381111562000b635762000b6262000cc6565b5b62000b98565b62000b78848484600162000a07565b9250905081840481111562000b925762000b9162000cc6565b5b81810290505b9392505050565b600062000bac8262000c79565b915062000bb98362000c79565b9250817fffffffffffffffffffffffffffffffffffffffffffffffffffffffffffffffff048311821515161562000bf55762000bf462000cc6565b5b828202905092915050565b600062000c0d8262000c79565b915062000c1a8362000c79565b92508282101562000c305762000c2f62000cc6565b5b828203905092915050565b600062000c488262000c59565b9050919050565b6000819050919050565b600073ffffffffffffffffffffffffffffffffffffffff82169050919050565b6000819050919050565b600060ff82169050919050565b6000600282049050600182168062000ca957607f821691505b6020821081141562000cc05762000cbf62000cf5565b5b50919050565b7f4e487b7100000000000000000000000000000000000000000000000000000000600052601160045260246000fd5b7f4e487b7100000000000000000000000000000000000000000000000000000000600052602260045260246000fd5b60008160011c9050919050565b7f45524332303a206d696e7420746f20746865207a65726f206164647265737300600082015250565b60805160a05160c05160601c60e05161010051610120516130a162000dad600039600061128a015260006112cc015260006112ab015260006111e0015260006112360152600061125f01526130a16000f3fe608060405234801561001057600080fd5b50600436106101425760003560e01c806379cc6790116100b8578063981b24d01161007c578063981b24d014610367578063a457c2d714610397578063a9059cbb146103c7578063d505accf146103f7578063dd62ed3e14610413578063f2fde38b1461044357610142565b806379cc6790146102d55780637ecebe00146102f15780638da5cb5b1461032157806395d89b411461033f5780639711715a1461035d57610142565b80633644e5151161010a5780633644e51514610201578063395093511461021f57806342966c681461024f5780634ee2cd7e1461026b57806370a082311461029b578063715018a6146102cb57610142565b806306fdde0314610147578063095ea7b31461016557806318160ddd1461019557806323b872dd146101b3578063313ce567146101e3575b600080fd5b61014f61045f565b60405161015c9190612633565b60405180910390f35b61017f600480360381019061017a91906120f6565b6104f1565b60405161018c9190612504565b60405180910390f35b61019d610514565b6040516101aa91906128b5565b60405180910390f35b6101cd60048036038101906101c89190612009565b61051e565b6040516101da9190612504565b60405180910390f35b6101eb61054d565b6040516101f891906128d0565b60405180910390f35b610209610556565b604051610216919061251f565b60405180910390f35b610239600480360381019061023491906120f6565b610565565b6040516102469190612504565b60405180910390f35b61026960048036038101906102649190612132565b61059c565b005b610285600480360381019061028091906120f6565b6105b0565b60405161029291906128b5565b60405180910390f35b6102b560048036038101906102b09190611fa4565b610620565b6040516102c291906128b5565b60405180910390f35b6102d3610668565b005b6102ef60048036038101906102ea91906120f6565b6106f0565b005b61030b60048036038101906103069190611fa4565b610710565b60405161031891906128b5565b60405180910390f35b610329610760565b60405161033691906124e9565b60405180910390f35b61034761078a565b6040516103549190612633565b60405180910390f35b61036561081c565b005b610381600480360381019061037c9190612132565b6108a3565b60405161038e91906128b5565b60405180910390f35b6103b160048036038101906103ac91906120f6565b6108d4565b6040516103be9190612504565b60405180910390f35b6103e160048036038101906103dc91906120f6565b61094b565b6040516103ee9190612504565b60405180910390f35b610411600480360381019061040c9190612058565b61096e565b005b61042d60048036038101906104289190611fcd565b610ab0565b60405161043a91906128b5565b60405180910390f35b61045d60048036038101906104589190611fa4565b610b37565b005b60606003805461046e90612a5f565b80601f016020809104026020016040519081016040528092919081815260200182805461049a90612a5f565b80156104e75780601f106104bc576101008083540402835291602001916104e7565b820191906000526020600020905b8154815290600101906020018083116104ca57829003601f168201915b5050505050905090565b6000806104fc610cfc565b9050610509818585610d04565b600191505092915050565b6000600254905090565b600080610529610cfc565b9050610536858285610ecf565b610541858585610f5b565b60019150509392505050565b60006012905090565b60006105606111dc565b905090565b600080610570610cfc565b90506105918185856105828589610ab0565b61058c9190612912565b610d04565b600191505092915050565b6105ad6105a7610cfc565b826112f6565b50565b60008060006105fd84600560008873ffffffffffffffffffffffffffffffffffffffff1673ffffffffffffffffffffffffffffffffffffffff1681526020019081526020016000206114cd565b91509150816106145761060f85610620565b610616565b805b9250505092915050565b60008060008373ffffffffffffffffffffffffffffffffffffffff1673ffffffffffffffffffffffffffffffffffffffff168152602001908152602001600020549050919050565b610670610cfc565b73ffffffffffffffffffffffffffffffffffffffff1661068e610760565b73ffffffffffffffffffffffffffffffffffffffff16146106e4576040517f08c379a00000000000000000000000000000000000000000000000000000000081526004016106db906127f5565b60405180910390fd5b6106ee60006115e9565b565b610702826106fc610cfc565b83610ecf565b61070c82826112f6565b5050565b6000610759600a60008473ffffffffffffffffffffffffffffffffffffffff1673ffffffffffffffffffffffffffffffffffffffff168152602001908152602001600020610cee565b9050919050565b6000600960009054906101000a900473ffffffffffffffffffffffffffffffffffffffff16905090565b60606004805461079990612a5f565b80601f01602080910402602001604051908101604052809291908181526020018280546107c590612a5f565b80156108125780601f106107e757610100808354040283529160200191610812565b820191906000526020600020905b8154815290600101906020018083116107f557829003601f168201915b5050505050905090565b610824610cfc565b73ffffffffffffffffffffffffffffffffffffffff16610842610760565b73ffffffffffffffffffffffffffffffffffffffff1614610898576040517f08c379a000000000000000000000000000000000000000000000000000000000815260040161088f906127f5565b60405180910390fd5b6108a06116af565b50565b60008060006108b38460066114cd565b91509150816108c9576108c4610514565b6108cb565b805b92505050919050565b6000806108df610cfc565b905060006108ed8286610ab0565b905083811015610932576040517f08c379a000000000000000000000000000000000000000000000000000000000815260040161092990612895565b60405180910390fd5b61093f8286868403610d04565b60019250505092915050565b600080610956610cfc565b9050610963818585610f5b565b600191505092915050565b834211156109b1576040517f08c379a00000000000000000000000000000000000000000000000000000000081526004016109a890612755565b60405180910390fd5b60007f6e71edae12b1b97f4d1f60370fef10105fa2faae0126114a169c64845d6126c98888886109e08c611705565b896040516020016109f69695949392919061253a565b6040516020818303038152906040528051906020012090506000610a1982611763565b90506000610a298287878761177d565b90508973ffffffffffffffffffffffffffffffffffffffff168173ffffffffffffffffffffffffffffffffffffffff1614610a99576040517f08c379a0000000000000000000000000000000000000000000000000000000008152600401610a90906127d5565b60405180910390fd5b610aa48a8a8a610d04565b50505050505050505050565b6000600160008473ffffffffffffffffffffffffffffffffffffffff1673ffffffffffffffffffffffffffffffffffffffff16815260200190815260200160002060008373ffffffffffffffffffffffffffffffffffffffff1673ffffffffffffffffffffffffffffffffffffffff16815260200190815260200160002054905092915050565b610b3f610cfc565b73ffffffffffffffffffffffffffffffffffffffff16610b5d610760565b73ffffffffffffffffffffffffffffffffffffffff1614610bb3576040517f08c379a0000000000000000000000000000000000000000000000000000000008152600401610baa906127f5565b60405180910390fd5b600073ffffffffffffffffffffffffffffffffffffffff168173ffffffffffffffffffffffffffffffffffffffff161415610c23576040517f08c379a0000000000000000000000000000000000000000000000000000000008152600401610c1a906126f5565b60405180910390fd5b610c2c816115e9565b50565b610c3a838383610ce9565b600073ffffffffffffffffffffffffffffffffffffffff168373ffffffffffffffffffffffffffffffffffffffff161415610c8557610c78826117a8565b610c806117fb565b610ce4565b600073ffffffffffffffffffffffffffffffffffffffff168273ffffffffffffffffffffffffffffffffffffffff161415610cd057610cc3836117a8565b610ccb6117fb565b610ce3565b610cd9836117a8565b610ce2826117a8565b5b5b505050565b505050565b600081600001549050919050565b600033905090565b600073ffffffffffffffffffffffffffffffffffffffff168373ffffffffffffffffffffffffffffffffffffffff161415610d74576040517f08c379a0000000000000000000000000000000000000000000000000000000008152600401610d6b90612855565b60405180910390fd5b600073ffffffffffffffffffffffffffffffffffffffff168273ffffffffffffffffffffffffffffffffffffffff161415610de4576040517f08c379a0000000000000000000000000000000000000000000000000000000008152600401610ddb90612715565b60405180910390fd5b80600160008573ffffffffffffffffffffffffffffffffffffffff1673ffffffffffffffffffffffffffffffffffffffff16815260200190815260200160002060008473ffffffffffffffffffffffffffffffffffffffff1673ffffffffffffffffffffffffffffffffffffffff168152602001908152602001600020819055508173ffffffffffffffffffffffffffffffffffffffff168373ffffffffffffffffffffffffffffffffffffffff167f8c5be1e5ebec7d5bd14f71427d1e84f3dd0314c0f7b2291e5b200ac8c7c3b92583604051610ec291906128b5565b60405180910390a3505050565b6000610edb8484610ab0565b90507fffffffffffffffffffffffffffffffffffffffffffffffffffffffffffffffff8114610f555781811015610f47576040517f08c379a0000000000000000000000000000000000000000000000000000000008152600401610f3e90612735565b60405180910390fd5b610f548484848403610d04565b5b50505050565b600073ffffffffffffffffffffffffffffffffffffffff168373ffffffffffffffffffffffffffffffffffffffff161415610fcb576040517f08c379a0000000000000000000000000000000000000000000000000000000008152600401610fc290612835565b60405180910390fd5b600073ffffffffffffffffffffffffffffffffffffffff168273ffffffffffffffffffffffffffffffffffffffff16141561103b576040517f08c379a000000000000000000000000000000000000000000000000000000000815260040161103290612695565b60405180910390fd5b61104683838361180f565b60008060008573ffffffffffffffffffffffffffffffffffffffff1673ffffffffffffffffffffffffffffffffffffffff168152602001908152602001600020549050818110156110cc576040517f08c379a00000000000000000000000000000000000000000000000000000000081526004016110c390612775565b60405180910390fd5b8181036000808673ffffffffffffffffffffffffffffffffffffffff1673ffffffffffffffffffffffffffffffffffffffff16815260200190815260200160002081905550816000808573ffffffffffffffffffffffffffffffffffffffff1673ffffffffffffffffffffffffffffffffffffffff168152602001908152602001600020600082825461115f9190612912565b925050819055508273ffffffffffffffffffffffffffffffffffffffff168473ffffffffffffffffffffffffffffffffffffffff167fddf252ad1be2c89b69c2b068fc378daa952ba7f163c4a11628f55a4df523b3ef846040516111c391906128b5565b60405180910390a36111d684848461181f565b50505050565b60007f000000000000000000000000000000000000000000000000000000000000000073ffffffffffffffffffffffffffffffffffffffff163073ffffffffffffffffffffffffffffffffffffffff1614801561125857507f000000000000000000000000000000000000000000000000000000000000000046145b15611285577f000000000000000000000000000000000000000000000000000000000000000090506112f3565b6112f07f00000000000000000000000000000000000000000000000000000000000000007f00000000000000000000000000000000000000000000000000000000000000007f0000000000000000000000000000000000000000000000000000000000000000611824565b90505b90565b600073ffffffffffffffffffffffffffffffffffffffff168273ffffffffffffffffffffffffffffffffffffffff161415611366576040517f08c379a000000000000000000000000000000000000000000000000000000000815260040161135d90612815565b60405180910390fd5b6113728260008361180f565b60008060008473ffffffffffffffffffffffffffffffffffffffff1673ffffffffffffffffffffffffffffffffffffffff168152602001908152602001600020549050818110156113f8576040517f08c379a00000000000000000000000000000000000000000000000000000000081526004016113ef906126b5565b60405180910390fd5b8181036000808573ffffffffffffffffffffffffffffffffffffffff1673ffffffffffffffffffffffffffffffffffffffff16815260200190815260200160002081905550816002600082825461144f9190612999565b92505081905550600073ffffffffffffffffffffffffffffffffffffffff168373ffffffffffffffffffffffffffffffffffffffff167fddf252ad1be2c89b69c2b068fc378daa952ba7f163c4a11628f55a4df523b3ef846040516114b491906128b5565b60405180910390a36114c88360008461181f565b505050565b60008060008411611513576040517f08c379a000000000000000000000000000000000000000000000000000000000815260040161150a90612875565b60405180910390fd5b61151b61185e565b84111561155d576040517f08c379a000000000000000000000000000000000000000000000000000000000815260040161155490612675565b60405180910390fd5b6000611575858560000161186f90919063ffffffff16565b905083600001805490508114156115935760008092509250506115e2565b60018460010182815481106115d1577f4e487b7100000000000000000000000000000000000000000000000000000000600052603260045260246000fd5b906000526020600020015492509250505b9250929050565b6000600960009054906101000a900473ffffffffffffffffffffffffffffffffffffffff16905081600960006101000a81548173ffffffffffffffffffffffffffffffffffffffff021916908373ffffffffffffffffffffffffffffffffffffffff1602179055508173ffffffffffffffffffffffffffffffffffffffff168173ffffffffffffffffffffffffffffffffffffffff167f8be0079c531659141344cd1fd0a4f28419497f9722a3daafe3b4186f6b6457e060405160405180910390a35050565b60006116bb6008611995565b60006116c561185e565b90507f8030e83b04d87bef53480e26263266d6ca66863aa8506aca6f2559d18aa1cb67816040516116f691906128b5565b60405180910390a18091505090565b600080600a60008473ffffffffffffffffffffffffffffffffffffffff1673ffffffffffffffffffffffffffffffffffffffff168152602001908152602001600020905061175281610cee565b915061175d81611995565b50919050565b60006117766117706111dc565b836119ab565b9050919050565b600080600061178e878787876119de565b9150915061179b81611aeb565b8192505050949350505050565b6117f8600560008373ffffffffffffffffffffffffffffffffffffffff1673ffffffffffffffffffffffffffffffffffffffff1681526020019081526020016000206117f383610620565b611e3c565b50565b61180d6006611808610514565b611e3c565b565b61181a838383610c2f565b505050565b505050565b6000838383463060405160200161183f95949392919061259b565b6040516020818303038152906040528051906020012090509392505050565b600061186a6008610cee565b905090565b60008083805490501415611886576000905061198f565b600080848054905090505b808210156119105760006118a58383611eb7565b9050848682815481106118e1577f4e487b7100000000000000000000000000000000000000000000000000000000600052603260045260246000fd5b906000526020600020015411156118fa5780915061190a565b6001816119079190612912565b92505b50611891565b60008211801561196e5750838560018461192a9190612999565b81548110611961577f4e487b7100000000000000000000000000000000000000000000000000000000600052603260045260246000fd5b9060005260206000200154145b15611989576001826119809190612999565b9250505061198f565b81925050505b92915050565b6001816000016000828254019250508190555050565b600082826040516020016119c09291906124b2565b60405160208183030381529060405280519060200120905092915050565b6000807f7fffffffffffffffffffffffffffffff5d576e7357a4501ddfe92f46681b20a08360001c1115611a19576000600391509150611ae2565b601b8560ff1614158015611a315750601c8560ff1614155b15611a43576000600491509150611ae2565b600060018787878760405160008152602001604052604051611a6894939291906125ee565b6020604051602081039080840390855afa158015611a8a573d6000803e3d6000fd5b505050602060405103519050600073ffffffffffffffffffffffffffffffffffffffff168173ffffffffffffffffffffffffffffffffffffffff161415611ad957600060019250925050611ae2565b80600092509250505b94509492505050565b60006004811115611b25577f4e487b7100000000000000000000000000000000000000000000000000000000600052602160045260246000fd5b816004811115611b5e577f4e487b7100000000000000000000000000000000000000000000000000000000600052602160045260246000fd5b1415611b6957611e39565b60016004811115611ba3577f4e487b7100000000000000000000000000000000000000000000000000000000600052602160045260246000fd5b816004811115611bdc577f4e487b7100000000000000000000000000000000000000000000000000000000600052602160045260246000fd5b1415611c1d576040517f08c379a0000000000000000000000000000000000000000000000000000000008152600401611c1490612655565b60405180910390fd5b60026004811115611c57577f4e487b7100000000000000000000000000000000000000000000000000000000600052602160045260246000fd5b816004811115611c90577f4e487b7100000000000000000000000000000000000000000000000000000000600052602160045260246000fd5b1415611cd1576040517f08c379a0000000000000000000000000000000000000000000000000000000008152600401611cc8906126d5565b60405180910390fd5b60036004811115611d0b577f4e487b7100000000000000000000000000000000000000000000000000000000600052602160045260246000fd5b816004811115611d44577f4e487b7100000000000000000000000000000000000000000000000000000000600052602160045260246000fd5b1415611d85576040517f08c379a0000000000000000000000000000000000000000000000000000000008152600401611d7c90612795565b60405180910390fd5b600480811115611dbe577f4e487b7100000000000000000000000000000000000000000000000000000000600052602160045260246000fd5b816004811115611df7577f4e487b7100000000000000000000000000000000000000000000000000000000600052602160045260246000fd5b1415611e38576040517f08c379a0000000000000000000000000000000000000000000000000000000008152600401611e2f906127b5565b60405180910390fd5b5b50565b6000611e4661185e565b905080611e5584600001611edd565b1015611eb25782600001819080600181540180825580915050600190039060005260206000200160009091909190915055826001018290806001815401808255809150506001900390600052602060002001600090919091909150555b505050565b60006002828418611ec89190612968565b828416611ed59190612912565b905092915050565b60008082805490501415611ef45760009050611f4b565b8160018380549050611f069190612999565b81548110611f3d577f4e487b7100000000000000000000000000000000000000000000000000000000600052603260045260246000fd5b906000526020600020015490505b919050565b600081359050611f5f8161300f565b92915050565b600081359050611f7481613026565b92915050565b600081359050611f898161303d565b92915050565b600081359050611f9e81613054565b92915050565b600060208284031215611fb657600080fd5b6000611fc484828501611f50565b91505092915050565b60008060408385031215611fe057600080fd5b6000611fee85828601611f50565b9250506020611fff85828601611f50565b9150509250929050565b60008060006060848603121561201e57600080fd5b600061202c86828701611f50565b935050602061203d86828701611f50565b925050604061204e86828701611f7a565b9150509250925092565b600080600080600080600060e0888a03121561207357600080fd5b60006120818a828b01611f50565b97505060206120928a828b01611f50565b96505060406120a38a828b01611f7a565b95505060606120b48a828b01611f7a565b94505060806120c58a828b01611f8f565b93505060a06120d68a828b01611f65565b92505060c06120e78a828b01611f65565b91505092959891949750929550565b6000806040838503121561210957600080fd5b600061211785828601611f50565b925050602061212885828601611f7a565b9150509250929050565b60006020828403121561214457600080fd5b600061215284828501611f7a565b91505092915050565b612164816129cd565b82525050565b612173816129df565b82525050565b612182816129eb565b82525050565b612199612194826129eb565b612a91565b82525050565b60006121aa826128eb565b6121b481856128f6565b93506121c4818560208601612a2c565b6121cd81612b28565b840191505092915050565b60006121e56018836128f6565b91506121f082612b39565b602082019050919050565b6000612208601d836128f6565b915061221382612b62565b602082019050919050565b600061222b6023836128f6565b915061223682612b8b565b604082019050919050565b600061224e6022836128f6565b915061225982612bda565b604082019050919050565b6000612271601f836128f6565b915061227c82612c29565b602082019050919050565b60006122946026836128f6565b915061229f82612c52565b604082019050919050565b60006122b76022836128f6565b91506122c282612ca1565b604082019050919050565b60006122da600283612907565b91506122e582612cf0565b600282019050919050565b60006122fd601d836128f6565b915061230882612d19565b602082019050919050565b6000612320601d836128f6565b915061232b82612d42565b602082019050919050565b60006123436026836128f6565b915061234e82612d6b565b604082019050919050565b60006123666022836128f6565b915061237182612dba565b604082019050919050565b60006123896022836128f6565b915061239482612e09565b604082019050919050565b60006123ac601e836128f6565b91506123b782612e58565b602082019050919050565b60006123cf6020836128f6565b91506123da82612e81565b602082019050919050565b60006123f26021836128f6565b91506123fd82612eaa565b604082019050919050565b60006124156025836128f6565b915061242082612ef9565b604082019050919050565b60006124386024836128f6565b915061244382612f48565b604082019050919050565b600061245b6016836128f6565b915061246682612f97565b602082019050919050565b600061247e6025836128f6565b915061248982612fc0565b604082019050919050565b61249d81612a15565b82525050565b6124ac81612a1f565b82525050565b60006124bd826122cd565b91506124c98285612188565b6020820191506124d98284612188565b6020820191508190509392505050565b60006020820190506124fe600083018461215b565b92915050565b6000602082019050612519600083018461216a565b92915050565b60006020820190506125346000830184612179565b92915050565b600060c08201905061254f6000830189612179565b61255c602083018861215b565b612569604083018761215b565b6125766060830186612494565b6125836080830185612494565b61259060a0830184612494565b979650505050505050565b600060a0820190506125b06000830188612179565b6125bd6020830187612179565b6125ca6040830186612179565b6125d76060830185612494565b6125e4608083018461215b565b9695505050505050565b60006080820190506126036000830187612179565b61261060208301866124a3565b61261d6040830185612179565b61262a6060830184612179565b95945050505050565b6000602082019050818103600083015261264d818461219f565b905092915050565b6000602082019050818103600083015261266e816121d8565b9050919050565b6000602082019050818103600083015261268e816121fb565b9050919050565b600060208201905081810360008301526126ae8161221e565b9050919050565b600060208201905081810360008301526126ce81612241565b9050919050565b600060208201905081810360008301526126ee81612264565b9050919050565b6000602082019050818103600083015261270e81612287565b9050919050565b6000602082019050818103600083015261272e816122aa565b9050919050565b6000602082019050818103600083015261274e816122f0565b9050919050565b6000602082019050818103600083015261276e81612313565b9050919050565b6000602082019050818103600083015261278e81612336565b9050919050565b600060208201905081810360008301526127ae81612359565b9050919050565b600060208201905081810360008301526127ce8161237c565b9050919050565b600060208201905081810360008301526127ee8161239f565b9050919050565b6000602082019050818103600083015261280e816123c2565b9050919050565b6000602082019050818103600083015261282e816123e5565b9050919050565b6000602082019050818103600083015261284e81612408565b9050919050565b6000602082019050818103600083015261286e8161242b565b9050919050565b6000602082019050818103600083015261288e8161244e565b9050919050565b600060208201905081810360008301526128ae81612471565b9050919050565b60006020820190506128ca6000830184612494565b92915050565b60006020820190506128e560008301846124a3565b92915050565b600081519050919050565b600082825260208201905092915050565b600081905092915050565b600061291d82612a15565b915061292883612a15565b9250827fffffffffffffffffffffffffffffffffffffffffffffffffffffffffffffffff0382111561295d5761295c612a9b565b5b828201905092915050565b600061297382612a15565b915061297e83612a15565b92508261298e5761298d612aca565b5b828204905092915050565b60006129a482612a15565b91506129af83612a15565b9250828210156129c2576129c1612a9b565b5b828203905092915050565b60006129d8826129f5565b9050919050565b60008115159050919050565b6000819050919050565b600073ffffffffffffffffffffffffffffffffffffffff82169050919050565b6000819050919050565b600060ff82169050919050565b60005b83811015612a4a578082015181840152602081019050612a2f565b83811115612a59576000848401525b50505050565b60006002820490506001821680612a7757607f821691505b60208210811415612a8b57612a8a612af9565b5b50919050565b6000819050919050565b7f4e487b7100000000000000000000000000000000000000000000000000000000600052601160045260246000fd5b7f4e487b7100000000000000000000000000000000000000000000000000000000600052601260045260246000fd5b7f4e487b7100000000000000000000000000000000000000000000000000000000600052602260045260246000fd5b6000601f19601f8301169050919050565b7f45434453413a20696e76616c6964207369676e61747572650000000000000000600082015250565b7f4552433230536e617073686f743a206e6f6e6578697374656e74206964000000600082015250565b7f45524332303a207472616e7366657220746f20746865207a65726f206164647260008201527f6573730000000000000000000000000000000000000000000000000000000000602082015250565b7f45524332303a206275726e20616d6f756e7420657863656564732062616c616e60008201527f6365000000000000000000000000000000000000000000000000000000000000602082015250565b7f45434453413a20696e76616c6964207369676e6174757265206c656e67746800600082015250565b7f4f776e61626c653a206e6577206f776e657220697320746865207a65726f206160008201527f6464726573730000000000000000000000000000000000000000000000000000602082015250565b7f45524332303a20617070726f766520746f20746865207a65726f20616464726560008201527f7373000000000000000000000000000000000000000000000000000000000000602082015250565b7f1901000000000000000000000000000000000000000000000000000000000000600082015250565b7f45524332303a20696e73756666696369656e7420616c6c6f77616e6365000000600082015250565b7f45524332305065726d69743a206578706972656420646561646c696e65000000600082015250565b7f45524332303a207472616e7366657220616d6f756e742065786365656473206260008201527f616c616e63650000000000000000000000000000000000000000000000000000602082015250565b7f45434453413a20696e76616c6964207369676e6174757265202773272076616c60008201527f7565000000000000000000000000000000000000000000000000000000000000602082015250565b7f45434453413a20696e76616c6964207369676e6174757265202776272076616c60008201527f7565000000000000000000000000000000000000000000000000000000000000602082015250565b7f45524332305065726d69743a20696e76616c6964207369676e61747572650000600082015250565b7f4f776e61626c653a2063616c6c6572206973206e6f7420746865206f776e6572600082015250565b7f45524332303a206275726e2066726f6d20746865207a65726f2061646472657360008201527f7300000000000000000000000000000000000000000000000000000000000000602082015250565b7f45524332303a207472616e736665722066726f6d20746865207a65726f20616460008201527f6472657373000000000000000000000000000000000000000000000000000000602082015250565b7f45524332303a20617070726f76652066726f6d20746865207a65726f2061646460008201527f7265737300000000000000000000000000000000000000000000000000000000602082015250565b7f4552433230536e617073686f743a206964206973203000000000000000000000600082015250565b7f45524332303a2064656372656173656420616c6c6f77616e63652062656c6f7760008201527f207a65726f000000000000000000000000000000000000000000000000000000602082015250565b613018816129cd565b811461302357600080fd5b50565b61302f816129eb565b811461303a57600080fd5b50565b61304681612a15565b811461305157600080fd5b50565b61305d81612a1f565b811461306857600080fd5b5056fea26469706673582212206b8aa5db9ca585e4613c99ea232b5593507119cfc2ba476430f04dd429e78aa264736f6c63430008040033",
  "linkReferences": {},
  "deployedLinkReferences": {}
}